:100000000C943A000C9481230C9481230C9481234A
:100010000C9481230C9481230C9481230C948123D0
:100020000C9481230C9481230C9481230C948123C0
:100030000C9481230C9481230C9481230C948123B0
:100040000C9481230C9481230C9481230C948123A0
:100050000C9481230C9481230C9481230C94812390
:100060000C9481230C948123010007218007210730
:100070002500471411241FBECFEFD8E0DEBFCDBF4F
:10008000E8E6F0E040E017C0B591A59135912591E3
:10009000059107FD0CC095918591EF01F92FE82F8F
:1000A00005900D92A217B307D9F7FE0104C01D9267
:1000B000A217B307E1F7E437F40731F70E94BC2237
:0800C0000C940823F894FFCF13
:1000C8000500000000000500005F000005000700B3
:1000D800070005147F147F1405242A7F2A1205239C
:1000E80013086462053649562050050807030000C6
:1000F80005001C224100050041221C000514083E91
:1001080008140508083E08080500B0700000050836
:1001180008080808050060600000052010080402AF
:10012800053E5149453E0500427F40000572494958
:100138004946052141494D33051814127F100527FA
:1001480045454539053C4A494931054121110907C9
:1001580005364949493605464949291E050000140E
:100168000000050040340000050814224100051471
:100178001414141405412214080005020159090633
:10018800053E415D594E057C1211127C057F494997
:100198004936053E41414122057F4141413E057FA7
:1001A80049494949057F09090909053E41415173F2
:1001B800057F0808087F0500417F41000520404170
:1001C8003F01057F08142241057F40404040057FDC
:1001D800020C027F057F0408107F053E4141413E25
:1001E800057F09090906053E4151215E057F091968
:1001F80029460526494949320501017F0101053F84
:100208004040403F051F2040201F053F4038403FE9
:100218000563140814630503047804030561514950
:10022800454305007F4141000502040810200500F0
:1002380041417F000504020102040540404040405E
:1002480005070B000000052054547840057F28441A
:10025800443805384444442805384444287F053840
:10026800545454180500087E09020518A4A49C7863
:10027800057F080404780500447D400005204040BF
:100288003D00057F102844000500417F4000057CA3
:1002980004780478057C0804047805384444443814
:1002A80005FC182424180518242418FC057C0804C7
:1002B80004080548545454240504043F4424053CC8
:1002C8004040207C051C2040201C053C4030403C20
:1002D800054428102844054C9090907C05446454AB
:1002E8004C44050008364100050000770000050071
:1002F8004136080005040204080405007F417F0018
:1003080083F9A200444E6E00FC291500D15727003E
:10031800DD34F50062DBC0003C9995004190430054
:100328006351FE00BBDEAB00B761C5003A6E240026
:10033800D24D42004906E00009EA2E001C92D10085
:10034800EB1DFE0029B11C00E83EA700F535820030
:1003580044BB2E009CE98400B4267000417E5F00F7
:10036800D6913900538339009CF439008B5F84009F
:1003780028F9BD00F81F3B00DEFF97000F98050025
:10038800112FEF000A5A8B006D1F6D00CF7E3600CB
:1003980009CB2700464FB7009E663F002DEA5F0055
:1003A800BA277500E5EBC7003D7BF100F739070078
:1003B80092528A00FB6BEA001FB15F00085D8D0056
:1003C800300356007BFC4600F0AB6B0020BCCF002E
:1003D80036F49A00E3A91D005E619100081BE6004F
:1003E80085996500A0145F008D40680080D8FF00E3
:1003F80027734D0006063100CA561500C9A87300B8
:080408007BE260006B8CC00078
:10041000DA0FC93F6821A233C434C2278B62C61BDE
:100420001CDC800F0229D103140000000000000032
:0804300000000000DCCFD13513
:080438000000000000C0153FA8
:080440000000803F0000C03FF6
:0804480003000400040006009B
:03045000202F005A
:10045400A1E7B1E0E0E3F2E00C94F321CB59DE4FE5
:100464008883C556D140C759DE4F9883C956D140B9
:10047400C35ADE4F79836883CD55D1407A01C75B77
:10048400DE4F39832883C954D140CD59DE4F1983B7
:100494000883C356D140C801880F991F092E000C48
:1004A400AA0B885B9B4FAF4FFC015A2F0E942D2350
:1004B4004B01770FAA08BB08CB5ADE4F888299827A
:1004C400AA82BB82C555D140C90101975C01990F2D
:1004D400CC08DD08CF5ADE4FA882B982CA82DB82FB
:1004E400C155D140C701039768E170E00E944222E0
:1004F40077FD0DC04B01770FAA08BB08C75ADE4F22
:1005040088829982AA82BB82C955D14008C0C75A41
:10051400DE4F188219821A821B82C955D140A8EE77
:10052400BFEFC75ADE4F288139814A815B81C955A3
:10053400D1402F5F3F4F4F4F5F4F0E9428238701C9
:10054400FF0C220B330B5B016C01A00EB11EC21E0B
:10055400D31ECF5BDE4FA882B982CA82DB82C1542C
:10056400D140C75ADE4F488059806A807B80C95584
:10057400D140CF5ADE4FC880D980EA80FB80C15574
:10058400D1404C185D086E087F08CB5ADE4F888036
:100594009980AA80BB80C555D1408C0C9D1CAE1C93
:1005A400BF1CCB5BDE4F88829982AA82BB82C55472
:1005B400D1408E010F551F4F6201CC0CDD1CCC0CB9
:1005C400DD1CC601DD0CAA0B9C014A2F285F3C4FA1
:1005D4004F4F6901E42E812C912C5401CB5BDE4FEB
:1005E400288139814A815B81C554D1402815390558
:1005F4004A055B0514F1D501C401840D951DA61DA2
:10060400B71DB7FD07C0F6015E2D0E94F1220E94BE
:10061400F61F03C060E070E0CB01D8016D937D93B9
:100624008D939D938D01BFEF8B1A9B0AAB0ABB0A76
:10063400E4E0CE0ED11CE11CD1CF8E010F5F1F4F21
:10064400C35BDE4F19830883CD54D140C75BDE4FB3
:1006540088809980C954D140C401990CAA0BBB0B62
:100664000197A109B1095C01AA0CBB1CAA0CBB1C13
:10067400C15ADE4FB982A882CF55D140212C312CEA
:10068400412C512C3201CB5ADE4F88809980AA80AC
:10069400BB80C555D14084149504A604B7040CF45A
:1006A40084C0CB59DE4F9880C556D140CB5BDE4F1A
:1006B4009882C554D140C759DE4FA880C956D1404D
:1006C400CA5BDE4FA882C654D140C15ADE4FC880EF
:1006D400D980CF55D140C20CD31CC959DE4FD98221
:1006E400C882C756D14000E010E0812C912C5401FF
:1006F400C12CD12C7601CF5ADE4F288139814A8111
:100704005B81C155D1402C153D054E055F05A4F113
:10071400C959DE4FE881F981C756D140E00FF11F76
:1007240021EA30E02C0F3D1FE20FF31FCB5BDE4FBD
:10073400A881B981C554D1402D913D914D915D91D0
:10074400CB5BDE4FB983A883C554D14060817181EE
:10075400828193810E947A239B01AC01C501B4017B
:100764000E9436234B015C01BFEFCB1ADB0AEB0A74
:10077400FB0A04501109BFCFC35BDE4FA881B981C6
:10078400CD54D1408D929D92AD92BD92C35BDE4F0C
:10079400B983A883CD54D140BFEF4B1A5B0A6B0ACF
:1007A4007B0AE4E02E0E311C6ECFCB5ADE4F8881DB
:1007B4009981AA81BB81C555D1400197A109B1098D
:1007C4007C01EE0CFF1CEE0CFF1CC459DE4FF982B9
:1007D400E882CC56D140CB5ADE4F488059806A809B
:1007E4007B80C555D140C75BDE4F88819981C95450
:1007F400D14001974C01990FAA08BB08C259DE4F9A
:1008040088829982AA82BB82CE56D1405201AA0C18
:10081400BB1CAA0CBB1CC35BDE4FB982A882CD549F
:10082400D140E1E0F0E0EC0FFD1FEA0DFB1DC080BC
:10083400D180E280F3801E0101EF200E311CD30130
:10084400C2010197A109B1094C01880C991C880CBB
:10085400991CC15ADE4F99828882CF55D140CB5B17
:10086400DE4F39822882C554D1405301420100E051
:1008740010E0181419041A041B040CF059C020E0E9
:1008840030E040E853E3C701B6010E947A230E9496
:100894003C230E94F61FC75BDE4F688379838A83FB
:1008A4009B83C954D14020E030E040E85BE40E94DF
:1008B4007A239B01AC01C701B6010E9435230E9433
:1008C4003C23CB5BDE4FA881B981C554D1406D93E5
:1008D4007D938D939D93CB5BDE4FB983A883C554E1
:1008E400D140B1E08B1A9108A108B108C15ADE4F7A
:1008F400E881F981CF55D140E00FF11FCC24C39496
:10090400D12CCC0EDD1EEC0DFD1D208131814281E8
:100914005381C75BDE4F688179818A819B81C95489
:10092400D1400E9436236B017C0104501109A1CFF0
:10093400CF5BDE4F08811981C154D140A801C701A2
:10094400B6010E944D1F6B017C0120E030E040E0C5
:100954005EE30E947A230E94D01A20E030E040E057
:1009640051E40E947A239B01AC01C701B6010E94A5
:1009740035236B017C010E943C23C75BDE4F6883F7
:1009840079838A839B83C954D1400E94F61F9B01BB
:10099400AC01C701B6010E9435236B017C01CF5B1A
:1009A400DE4F88809980AA80BB80C154D14018143E
:1009B40019041A041B040CF05AC0D301C201019794
:1009C400A109B109FC01EE0FFF1FEE0FFF1F71EF2C
:1009D400A72EB12CAC0EBD1EEA0DFB1D80819181AA
:1009E400A281B38128E130E028193909AC01BD01A5
:1009F400022E04C075956795579547950A94D2F7CA
:100A0400C75BDE4F88809980AA80BB80C954D140DF
:100A1400840E951EA61EB71EC75BDE4F8882998280
:100A2400AA82BB82C954D14004C0440F551F661F1B
:100A3400771F2A95D2F7841B950BA60BB70B8083DF
:100A44009183A283B38327E130E0CF5BDE4FA8809C
:100A5400B980C154D1402A193B094C015D0104C03D
:100A6400B594A794979487942A95D2F728C0CF5B1E
:100A7400DE4F88809980AA80BB80C154D1408928E8
:100A84008A288B2891F5D301C2010197A109B109E4
:100A9400880F991F880F991FE1EFF0E0EC0FFD1FFD
:100AA400E80FF91F80819181A281B3814C015D011E
:100AB40057E1B594A794979487945A95D1F7CB5B53
:100AC400DE4F88829982AA82BB82C554D140CB5B17
:100AD400DE4F88809980AA80BB80C554D140181409
:100AE40019041A041B04FCF0E2C020E030E040E0EA
:100AF4005FE30E946D2387FF09C0CB5BDE4F188242
:100B040019821A821B82C554D140D1C032E0832E8F
:100B1400912CA12CB12CCB5BDE4F88829982AA82C6
:100B2400BB82C554D140C75BDE4F288139814A81DD
:100B34005B81C954D1402F5F3F4F4F4F5F4FC75B1D
:100B4400DE4F288339834A835B83C954D14080E0D4
:100B540090E0DC01812C912C540184159505A605A7
:100B6400B705ACF5F1014081518162817381811433
:100B74009104A104B10481F4411551056105710585
:100B8400F9F0812C912C5401B394841A950AA60A85
:100B9400B70AB501A4010CC088248A94982CA82C07
:100BA400B12C841A950AA60AB70AB501A401F10169
:100BB4004083518362837383812C912C54018394E9
:100BC4000196A11DB11DF4E02F0E311CC6CFCF5BE1
:100BD400DE4F288139814A815B81C154D14012168C
:100BE400130614061506CCF52130310541055105CF
:100BF400D9F0223031054105510579F5D301C201FF
:100C04000197A109B109880F991F880F991FE1EF76
:100C1400F0E0EC0FFD1FE80FF91F40815181628164
:100C240073816F73772715C0D301C2010197A1099E
:100C3400B109880F991F880F991FE1EFF0E0EC0FBD
:100C4400FD1FE80FF91F40815181628173816F7725
:100C540077274083518362837383CB5BDE4F488164
:100C640059816A817B81C554D14042305105610567
:100C74007105E9F4A701960160E070E080E89FE364
:100C84000E9435236B017C0189288A288B2879F0FE
:100C9400A80160E070E080E89FE30E944D1F9B0183
:100CA400AC01C701B6010E9435236B017C0120E031
:100CB40030E0A901C701B6010E9468238111CFC1A8
:100CC4007301620151E0C51AD108E108F108B301CA
:100CD400A20120E030E080E090E0DC0141505109C5
:100CE40061097109CB5ADE4F88809980AA80BB8044
:100CF400C555D140481559056A057B05D4F0C15A3C
:100D0400DE4FE881F981CF55D140E20FF31F11EF97
:100D1400812E912C8C0E9D1EE80DF91D80809180F2
:100D2400A280B38088299929AA29BB292450310992
:100D3400D5CF892B8A2B8B2B09F046C180E090E01C
:100D440041E050E060E070E00497C459DE4FE88170
:100D5400F981CC56D140E80FF91F21EFA22EB12C16
:100D6400AC0EBD1EEA0DFB1D048115812681378161
:100D7400012B022B032B29F44F5F5F4F6F4F7F4FE3
:100D8400E3CF530142010FEF801A900AA00AB00A80
:100D9400C75ADE4FC880D980EA80FB80C955D1404C
:100DA400C80CD91CEA1CFB1CCC0CDD1CCC0CDD1CB7
:100DB400C601DD0CAA0B8C012A2F085F1C4F2F4F94
:100DC4006801E22EC259DE4F88819981AA81BB81D4
:100DD400CE56D140880D991DAA1DBB1D8C01000F54
:100DE400111F000F111FC659DE4F19830883CA56FD
:100DF400D1408401000F111F000F111FC959DE4F8C
:100E040019830883C756D140212C312CD301C20148
:100E1400840F951FA61FB71FC15ADE4F888399837D
:100E2400AA83BB83CF55D140C15ADE4F08811981B3
:100E34002A813B81CF55D140081519052A053B0568
:100E44000CF4BFC0C659DE4F08811981CA56D1407F
:100E5400020D131DC35BDE4F19830883CD54D140AB
:100E640001EA10E00C0F1D1FC35BDE4F288139819E
:100E7400CD54D140020F131FF6015E2D0E94F122C2
:100E84000E94F61FD8016D937D938D939C931397C5
:100E9400CB59DE4FF880C556D140CB5BDE4FF8828C
:100EA400C554D140C759DE4FF880C956D140CA5BFA
:100EB400DE4FF882C654D140C75BDE4F18821982D8
:100EC4001A821B82C954D14000E010E0412C512CFD
:100ED4003201C75BDE4F488159816A817B81C954E5
:100EE400D140CF5ADE4F88819981AA81BB81C155F7
:100EF400D14084179507A607B7070CF443C0C35B1A
:100F0400DE4FE881F981CD54D140E00FF11F21EA91
:100F140030E02C0F3D1FE20FF31FCB5BDE4FA881A7
:100F2400B981C554D1402D913D914D915D91CB5BDB
:100F3400DE4FB983A883C554D14060817181828119
:100F440093810E947A239B01AC01C301B2010E94E8
:100F540036232B013C01C75BDE4F288139814A814E
:100F64005B81C954D1402F5F3F4F4F4F5F4FC75BE9
:100F7400DE4F288339834A835B83C954D1400450AC
:100F84001109A7CFC959DE4FE881F981C756D1406D
:100F9400E20DF31DA1E0B0E0AC0FBD1FEA0FFB1F93
:100FA4004082518262827382BFEF8B1A9B0AAB0A22
:100FB400BB0AE4E02E0E311CF4E0CF0ED11CE11C80
:100FC40033CF2801390122CCCF5BDE4F2881398110
:100FD4004A815B81C154D1402851310941095109E9
:100FE400CF5BDE4F288339834A835B83C154D1406E
:100FF400C601880F991F880F991F2601370120E029
:1010040030E024503109F901E80FF91F61EF70E075
:101014006C0F7D1FE60FF71F448155816681778130
:10102400452B462B472B09F09EC041E0441A51083A
:1010340061087108CF5BDE4F488159816A817B81E9
:10104400C154D1404851510961097109CF5BDE4F48
:10105400488359836A837B83C154D140D2CFCF5B09
:10106400DE4F48815981C154D14051954195510970
:10107400C701B6010E944D1F6B017C0120E030E0E6
:1010840040E85BE40E946D2387FD57C020E030E018
:1010940040E853E3C701B6010E947A230E943C232F
:1010A4000E94F61F4B015C0101EF10E00C0F1D1FA5
:1010B400C35BDE4F88819981CD54D140080F191F3D
:1010C40020E030E040E85BE4C501B4010E947A23EB
:1010D4009B01AC01C701B6010E9435230E943C2349
:1010E400D8016D937D938D939C931397BFEF4B1A07
:1010F4005B0A6B0A7B0ACF5BDE4F088119812A8168
:101104003B81C154D140085E1F4F2F4F3F4FCF5BEF
:10111400DE4F088319832A833B83C154D140820163
:10112400000F111F000F111F21EF30E02C0F3D1F86
:10113400020F131FC501B4010EC001EF10E00C0F24
:101144001D1FC35BDE4F88809980CD54D140080DAC
:10115400191DC701B6010E943C23D8016D937D93EC
:101164008D939C931397CF5BDE4F48815981C15473
:10117400D14060E070E080E89FE30E944D1F4B0186
:101184005C01C15ADE4F59824882CF55D1401201C9
:10119400220C331C220C331C7301620100E010E0AA
:1011A400F7FC3CC0C801820D931DE1E0F0E0EC0FB8
:1011B400FD1FE80FF91FCF5BDE4FF983E883C154AD
:1011C400D140E1EFF0E0EC0FFD1FE80FF91F608163
:1011D4007181828193810E94F61FA50194010E946E
:1011E4007A23CF5BDE4FA881B981C154D1406D937E
:1011F4007D938D939C93139720E030E040E853E374
:10120400C501B4010E947A234B015C01B1E0CB1A01
:10121400D108E108F10804501109C2CF8E010F5A18
:101224001F4FC35BDE4F19830883CD54D140CF5B7E
:10123400DE4F188219821A821B82C154D140CF5AC0
:10124400DE4F19821882C155D140D301C201CF5B50
:10125400DE4F88809980AA80BB80C154D140881910
:101264009909AA09BB09B7FDB2C070E1872E74E0E1
:10127400972E70E0A72E6101CF5ADE4FE880F980E7
:10128400C155D140CE18DF08CB59DE4FD982C88270
:10129400C556D14000E010E0C75ADE4F18821982CB
:1012A4001A821B82C955D140C12CD12C7601CB5A4C
:1012B400DE4F688179818A819B81C555D1406C1547
:1012C4007D058E059F050CF447C0CF5BDE4F8881FA
:1012D4009981AA81BB81C154D1408C159D05AE056D
:1012E400BF05D4F1CB59DE4FA881B981C556D14091
:1012F400A00FB11F21E030E02C0F3D1FA20FB31F40
:10130400F4015A2D0E94F1229B01AC016D917D9153
:101314008D919C910E947A239B01AC01C75ADE4FA8
:10132400688179818A819B81C955D1400E94362385
:10133400C75ADE4F688379838A839B83C955D1401A
:101344003FEFC31AD30AE30AF30A44E0840E911C64
:10135400A11C0C5F1F4FABCFC35BDE4FA881B981CB
:10136400CD54D140C75ADE4F88809980AA80BB8073
:10137400C955D1408D929D92AD92BD92C35BDE4F13
:10138400B983A883CD54D140CF5ADE4F0881198147
:10139400C155D1400C5F1F4FCF5ADE4F19830883CC
:1013A400C155D140CF5BDE4F288139814A815B81B1
:1013B400C154D1402F5F3F4F4F4F5F4FCF5BDE4F44
:1013C400288339834A835B83C154D1403ECFCD59AE
:1013D400DE4F08811981C356D1400330110574F4DE
:1013E400013011050CF048C00115110509F041C286
:1013F40000E010E060E070E0CB0146C0CD59DE4F64
:1014040008811981C356D1400330110509F031C256
:1014140051E5852E912C8C0E9D1E820C931CCF5B66
:10142400DE4F99828882C154D14014012CEFC15AF5
:10143400DE4F08811981CF55D14020034001219FFF
:10144400900C1124CD59DE4F99828882C356D14025
:10145400D301C2010197A109B1095C01AA0CBB1C0B
:10146400AA0CBB1CC75ADE4FB982A882C955D14009
:10147400810173016201B0C07301620100E010E0F8
:1014840060E070E0CB0135C077FC18C0F101E00FDB
:10149400F11F41E5C42ED12CCC0EDD1EEC0DFD1D3B
:1014A40020813181428153810E94362321E0421AF6
:1014B40051086108710804501109E6CFCB5BDE4F77
:1014C40088809980AA80BB80C554D140DC01CB01BF
:1014D40081149104A104B10409F0B058C35ADE4F39
:1014E400E881F981CD55D14080839183A283B38370
:1014F400C0C1F7FC18C0F101E00FF11F31E5832EE4
:10150400912C8C0E9D1EE80DF91D208131814281A4
:1015140053810E94362321E0C21AD108E108F10860
:1015240004501109E6CFCB5BDE4F88809980AA80F6
:10153400BB80C554D1408B019C0189288A288B2803
:1015440009F03058C35ADE4FA881B981CD55D14036
:101554000D931D932D933C9313979B01AC018E0126
:101564000F5A1F4FF80161917191819191918F01EF
:101574000E943523C12CD12C7601C3944C145D04F4
:101584006E047F0474F0D8012D913D914D915D91CD
:101594008D010E943623BFEFCB1ADB0AEB0AFB0A4C
:1015A400EDCFCB5BDE4F88809980AA80BB80C55489
:1015B400D140DC01CB0181149104A104B10409F0F0
:1015C400B058C35ADE4FE881F981CD55D1408483A8
:1015D4009583A683B7834DC11C141D041E041F04E8
:1015E4000CF06DC0F1E0CF1AD108E108F108CD5933
:1015F400DE4F88819981C356D140800F911FC75A0D
:10160400DE4F88809980C955D140880E991ECF5AE3
:10161400DE4F99828882C155D140D4018D909D902E
:10162400AD90BC90CB5ADE4F88829982AA82BB824D
:10163400C555D140F80180809180A280B380A50176
:101644009401CB5ADE4F688179818A819B81C5558B
:10165400D1400E943623C35BDE4F688379838A833B
:101664009B83CD54D1409B01AC01CB5ADE4F6881A2
:1016740079818A819B81C555D1400E943523A5017A
:1016840094010E943623D8016D937D938D939C938E
:101694001397C35BDE4F88809980AA80BB80CD54AA
:1016A400D140CF5ADE4FA881B981C155D1408D9226
:1016B4009D92AD92BC921397045011098DCF730182
:1016C4006201E2E0CE16D104E104F1040CF463C03B
:1016D400B1E0CB1AD108E108F108CD59DE4F0881F9
:1016E4001981C356D140020D131DC75ADE4F88809D
:1016F4009980C955D140080D191DD8018D909D9030
:10170400AD90BC90CB5ADE4F88829982AA82BB826C
:10171400C555D140F10180809180A280B380A5019C
:101724009401CB5ADE4F688179818A819B81C555AA
:10173400D1400E943623CF5ADE4F688379838A834F
:101744009B83C155D1409B01AC01CB5ADE4F6881CC
:1017540079818A819B81C555D1400E943523A50199
:1017640094010E943623D1016D937D938D939C93B4
:101774001397CF5ADE4F88809980AA80BB80C155C9
:10178400D140D8018D929D92AD92BC921397B4E052
:101794002B1A310896CF00E010E060E070E0CB0136
:1017A40022E04216510461047104B4F0CF5BDE4FB1
:1017B400E881F981C154D140E00FF11F20813181CA
:1017C400428153810E943623F1E04F1A5108610887
:1017D400710804501109E4CFCB5BDE4F88809980F7
:1017E400AA80BB80C554D14065960CAD1DAD2EAD0D
:1017F4003FAD659781149104A104B104E9F4C35A7F
:10180400DE4FA881B981CD55D1400D931D932D9301
:101814003C93139769960CAD1DAD2EAD3FAD699702
:10182400FD01048315832683378318966D937D9376
:101834008D939C931B971DC03058C35ADE4FE8818B
:10184400F981CD55D1400083118322833383699676
:101854000CAD1DAD2EAD3FAD699730580483158393
:1018640026833783DC01CB01B05880879187A28718
:10187400B387C75BDE4F88819981C954D140877093
:0C1884009927CF58DE4FE2E10C940F22B0
:10189000A3E2B0E0EEE4FCE00C94F52129833A8366
:1018A0004B835C8329013A01E89477F84114510491
:1018B0006104710409F46CC66D877E878F87988BED
:1018C0007B018C0161157105A0E88A07AFE39A07D7
:1018D00009F45EC629873A874B875C874B015C0118
:1018E0006B017C01E894F7F8B1E0CB16D104B0E8C5
:1018F000EB06BFE7FB0644F4E1E04E165104E0E8D6
:101900006E06EFE77E064CF029853A854B855C85AF
:10191000C501B4010E94362346C60D851E852F855C
:10192000388937FF4DC04114510410E861061BE4AB
:1019300071060CF04AC04114510420E862062FE3FE
:1019400072060CF470C0D301C20107E1B595A795EA
:10195000979587950A95D1F78F579109A109B109F4
:1019600027E130E0281B390BD301C201022E04C04D
:10197000B595A795979587950A94D2F7AC01BD01C7
:1019800004C0440F551F661F771F2A95D2F74416CF
:1019900055066606770609F046C081709927AA2782
:1019A000BB2742E050E060E070E08A019B01081B29
:1019B000190B2A0B3B0B0D831E832F83388737C0EF
:1019C0001D821E821F82188608C022E030E040E09F
:1019D00050E02D833E834F8358874114510430E8F3
:1019E00063063FE7730619F5C114D10440E8E40625
:1019F0004FE3F40609F4CCC55CF0E980FA800B8172
:101A00001C8117FDCAC569857A858B859C85CBC5E8
:101A1000E980FA800B811C8117FFBFC569857A8533
:101A20008B859C858AC01D821E821F821886411468
:101A3000510400E860060FE3700669F4E980FA805B
:101A40000B811C8117FFADC5A501940160E070E01A
:101A500080E89FE365C009811A812B813C810115D3
:101A60001105210540E4340729F4A5019401C501BD
:101A7000B401C2C089819A81AB81BC810097A10564
:101A8000BF4359F40D851E852F85388937FD05C064
:101A9000C501B4010E94801586C5C501B4010E942C
:101AA0008323C114D104E104F10449F095018401B8
:101AB0003F730115110520483F4309F040C00981DB
:101AC0001A812B813C8137FF08C09B01AC0160E08B
:101AD00070E080E89FE30E9476232D853E854F8548
:101AE000588957FF60C530E8E31A3FE3F30A0D81D8
:101AF0001E812F813885C02AD12AE22AF32AC114F7
:101B0000D104E104F10479F421E230E030931807C4
:101B1000209317079B01AC010E9435239B01AC0168
:101B20000E94762340C52D813E814F81588521300A
:101B300031054105510509F036C5905834C50D856C
:101B40001E852F85388937FF21C02D813E814F8129
:101B50005885232B242B252B59F481E290E0909378
:101B6000180780931707A5019401C501B401D4CFCC
:101B70000D811E812F813885013011052105310528
:101B800071F420E030E040E85FEB0DC000E010E0D1
:101B900020E83FE30D831E832F83388708C020E0B1
:101BA00030E040E85FE32D833E834F83588731E088
:101BB0004316510461043DE473060CF497C048EFEA
:101BC000C4164FEFD4064FE7E4064FE3F406BCF427
:101BD000E980FA800B811C8117FF60C32AEC32EF89
:101BE00049E451E76D817E818F8198850E947A2337
:101BF0002AEC32EF49E451E70E947A23D4C408E08A
:101C0000C016D10400E8E0060FE3F00654F0E980C6
:101C1000FA800B811C811E141F0410061106F4F2B9
:101C20003DC320E030E040E85FE30E9435236B01D4
:101C30007C0120E03AEA48EB5FE30E947A234B0103
:101C40005C0120E735EA4CEE56E3C701B6010E947D
:101C50007A2369837A838B839C8320E030E040E899
:101C60005EE3C701B6010E947A239B01AC016BEAD7
:101C70007AEA8AEA9EE30E943523A70196010E9430
:101C80007A239B01AC0160E070E080E09FE30E945A
:101C900035232B013C01A7019601C701B6010E9423
:101CA0007A239B01AC01C301B2010E947A232BE38A
:101CB0003AEA48EB5FE30E947A239B01AC01698119
:101CC0007A818B819C810E9435236B017C019B0171
:101CD000AC01C501B4010E9436236627707F6D8771
:101CE0007E878F87988BA501940136C2C114D104D9
:101CF00000E8E006F1046CF420E030E040E85BE44A
:101D00000E947A236B017C0148EE5FEF6FEF7FEF5B
:101D100003C040E050E0BA01D701C60117E1B59514
:101D2000A795979587951A95D1F78F579109A1098E
:101D3000B1098C019D01040F151F261F371F0D8B44
:101D40001E8B2F8B388FE894E7F8FF24460157014C
:101D50006894A7F81FE3B12A22E7C21624ECD20642
:101D60002CE1E206F104B4F037EDC31633EBD306F1
:101D70003DE5E306F10494F08D899E89AF89B88D25
:101D80000196A11DB11D8D8B9E8BAF8BB88F90E8F6
:101D9000A91AB108412C512C320104C0412C512CFC
:101DA00032014394C201880F991F880F991F7C014B
:101DB000990F000BE98EFA8E0B8FA02FC701805C64
:101DC0009B4FAF4FFC015A2F0E94F122698B7A8BF7
:101DD0008B8B9C8B9B01AC01C501B4010E94352308
:101DE0006C8F7D8F8E8F9F8F29893A894B895C8973
:101DF000C501B4010E9436239B01AC0160E070E094
:101E000080E89FE30E94762368A379A38AA39BA31B
:101E10009B01AC016C8D7D8D8E8D9F8D0E947A23F0
:101E20006D877E878F87988B0D851E852F853889D6
:101E30000027107F09831A832B833C83750164017B
:101E4000F594E794D794C794CC2410EFD122E8946A
:101E5000F5F86894F5F8D701C601A05CBF4F73018F
:101E60006201F5E1CC0CDD1CEE1CFF1CFA95D1F7EC
:101E7000C80ED91EEA1EFB1EA701960169817A8150
:101E80008B819C810E947A239B01AC016C8D7D8D9E
:101E90008E8D9F8D0E9435232B013C0129893A8923
:101EA0004B895C89C701B6010E9435239B01AC01B7
:101EB000C501B4010E94352329813A814B815C819F
:101EC0000E947A239B01AC01C301B2010E94352319
:101ED00028A139A14AA15BA10E947A23698B7A8B40
:101EE0008B8B9C8B2D853E854F855889CA01B90106
:101EF0000E947A236B017C0122E431EF43E55EE32B
:101F00000E947A2325E532E34CE65EE30E94362305
:101F1000A70196010E947A2325E033EA4BE85EE3AD
:101F20000E943623A70196010E947A232BEA3AEAFF
:101F30004AEA5EE30E943623A70196010E947A23B3
:101F400027EB3DE64BED5EE30E943623A7019601A9
:101F50000E947A232AE939E949E15FE30E943623A6
:101F60004B015C01A7019601C701B6010E947A23CB
:101F70009B01AC01C501B4010E947A236B017C0175
:101F800029813A814B815C816D857E858F85988919
:101F90000E94362329893A894B895C890E947A23D9
:101FA000A70196010E9436236B017C0129813A81A9
:101FB0004B815C81CA01B9010E947A232B013C014B
:101FC00020E030E040E450E40E943623A70196016F
:101FD0000E9436234B015C01882420EF9222A50148
:101FE000940169817A818B819C810E947A23698323
:101FF0007A838B839C8320E030E040E450E4C50189
:10200000B4010E943523A30192010E9435239B0154
:10201000AC01C701B6010E9435232D853E854F8551
:1020200058890E947A236B017C01A501940169897A
:102030007A898B899C890E947A239B01AC01C70114
:10204000B6010E9436236B017C019B01AC016981C2
:102050007A818B819C810E9436232B013C01442490
:1020600030EF532220E030E446E75FE3C301B201E2
:102070000E947A23698B7A8B8B8B9C8B29813A8186
:102080004B815C81C301B2010E9435239B01AC01ED
:10209000C701B6010E9435232FE438E346E75FE32A
:1020A0000E947A236B017C0126EC33E246EF58EB69
:1020B000C301B2010E947A239B01AC01C701B601A2
:1020C0000E9436236B017C01898D9A8DAB8D805DDA
:1020D0009B4FAF4FFC015A2F0E94F1229B01AC0194
:1020E000C701B6010E9436236B017C016D897E8990
:1020F0008F89988D0E94F61F4B015C01898D9A8D06
:10210000AB8D885C9B4FAF4FFC015A2F0E94F12290
:102110002B013C01A701960169897A898B899C89E9
:102120000E943623A30192010E943623A501940147
:102130000E9436236627707F6D877E878F87988BF6
:10214000A50194010E943523A30192010E94352329
:1021500029893A894B895C890E9435239B01AC010E
:10216000C701B6010E9435234B015C01C984DA84A2
:10217000EB84FC84CC2440EFD422A701960169852E
:102180007A858B859C850E9435232D853E854F85DC
:1021900058890E947A232B013C0129853A854B8579
:1021A0005C85C501B4010E947A239B01AC01C30187
:1021B000B2010E94362369837A838B839C83A701B3
:1021C00096016D857E858F8598890E947A23962E4B
:1021D000A72EB82E892E6D87798B182F092F262FC1
:1021E000372F482F592F69817A818B819C810E94DA
:1021F00036236B017C0169877A878B879C87DC019A
:10220000CB010197A105B3440CF0E8CC29853A85B0
:102210004B855C852115310541055344E9F42CE3D8
:102220003AEA48E353E369817A818B819C810E9479
:1022300036232B013C01292D3A2D4B2D582DC7015A
:10224000B6010E9435239B01AC01C301B2010E947B
:102250006D23181694F5C2CCD701C601BF7701973C
:10226000A641B344DCF429853A854B855C8521156C
:1022700031054641534C09F5292D3A2D4B2D582D4A
:10228000C701B6010E9435239B01AC0169817A81A7
:102290008B819C810E94682318167CF020E632E432
:1022A00042EA5DE06D817E818F8198850E947A236C
:1022B00020E632E442EA5DE09FCCD701C601BF7759
:1022C00081309105A105EFE3BE070CF469C057E129
:1022D000B595A795979587955A95D1F78E5740E074
:1022E00050E060E870E08A019B0104C035952795B5
:1022F000179507958A95D2F7C00ED11EE21EF31EE0
:10230000D701C601BF7767E1B595A79597958795E2
:102310006A95D1F78F579109A109B1094FEF5FEF86
:102320006FE770E0082E04C075956795579547953F
:102330000A94D2F740955095609570959A01AB013B
:102340002C213D214E215F21E894E7F8FF24689479
:10235000E7F867E170E0FB01E81BF90B26013701A4
:1023600004C07594679457944794EA95D2F7E9842A
:10237000FA840B851C8517FF08C0709460945094F4
:102380004094411C511C611C711C692D7A2D8B2DB0
:10239000982D0E9435236D87798B182F092F03C044
:1023A000412C512C320129813A814B815C816D8510
:1023B0007989812F902F0E9436234B015C0188245C
:1023C00020E8922220E032E741E35FE3C501B40157
:1023D0000E947A2369877A878B879C872D85398924
:1023E000412F502FC501B4010E9435239B01AC0140
:1023F00069817A818B819C810E94352328E132E7B3
:1024000041E35FE30E947A236B017C012CE83EEB01
:102410004FEB55E3C501B4010E947A239B01AC0147
:10242000C701B6010E9436234B015C019B01AC0140
:1024300069857A858B859C850E9436236B017C019A
:1024400029853A854B855C850E9435239B01AC012B
:10245000C501B4010E94352369837A838B839C83F1
:10246000A7019601C701B6010E947A234B015C01C6
:102470002CE43BEB41E353E30E947A232EE03AEE57
:102480004DED55E30E943523A50194010E947A2366
:1024900025E533EB4AE858E30E943623A501940171
:1024A0000E947A2321E63BE046E35BE30E9435236A
:1024B000A50194010E947A232BEA3AEA4AE25EE3FC
:1024C0000E943623A50194010E947A239B01AC014E
:1024D000C701B6010E9435234B015C019B01AC0191
:1024E000C701B6010E947A2369877A878B879C8708
:1024F00020E030E040E050E4C501B4010E94352303
:102500009B01AC0169857A858B859C850E94762329
:102510004B015C0129813A814B815C81C701B60185
:102520000E947A2329813A814B815C810E94362363
:102530009B01AC01C501B4010E943523A70196019E
:102540000E9435239B01AC0160E070E080E89FE3CE
:102550000E9435239301820147E1000F111F221FC2
:10256000331F4A95D1F7060F171F281F391F011572
:10257000110540E82407310524F4A2010E944D1FF3
:1025800002C0C901B8012D813E814F81588534CBED
:1025900060E070E080E89FE306C060E070E0CB019F
:0E25A00002C0C501B401A396E0E10C94112223
:1025AE001F93CF93DF93CDB7DEB72C970FB6F8946A
:1025BE00DEBF0FBECDBF611571058105910521F4FA
:1025CE0080E30E942F143AC161157105810520E840
:1025DE00920709F433C1FE0131962CE0DF011D9202
:1025EE002A95E9F720E32B872A87298728872F83C7
:1025FE002E832D832C832B832A83298399235CF4AA
:10260E009B01AC0188279927DC01821B930BA40B3D
:10261E00B50B11E003C0DC01CB0110E081153AECE3
:10262E0093073AE9A3073BE3B3078CF021E301C01C
:10263E00232F9A5CAA49BB4331E0320F81154AEC35
:10264E0094074AE9A4074BE3B40794F72A8381154C
:10265E0051EE950755EFA50755E0B5078CF021E330
:10266E0001C0232F915EA54FB54031E0320F811589
:10267E0041EE940745EFA40745E0B40794F72B838A
:10268E00803856E9950758E9A507B1058CF021E386
:10269E0001C0232F80589649A849B10931E0320F65
:1026AE00803846E9940748E9A407B10594F72C83CE
:1026BE00803452E495075FE0A507B1058CF021E365
:1026CE0001C0232F80549244AF40B10931E0320F44
:1026DE00803442E494074FE0A407B10594F72D83AC
:1026EE00803A56E8950751E0A507B1058CF021E335
:1026FE0001C0232F805A9648A140B10931E0320F14
:10270E00803A46E8940741E0A407B10594F72E837A
:10271E00803157E29507A105B10584F021E301C090
:10272E00232F80519742A109B10931E0320F803138
:10273E0047E29407A105B1059CF72F83883E53E02D
:10274E009507A105B10584F021E301C0232F885E12
:10275E009340A109B10931E0320F883E43E094075E
:10276E00A105B1059CF7288784369105A105B10511
:10277E007CF021E301C0232F84569109A109B109F0
:10278E0031E0320F84369105A105B105A4F72987F2
:10279E008A309105A105B10574F021E301C0232F04
:1027AE000A97A109B10931E0320F8A309105A105CE
:1027BE00B105ACF72A87181619061A061B060CF077
:1027CE003BC0AC01BD014150510961097109D9F7F6
:1027DE00805D8B8731C0982F81E0890FE1E0F0E0BA
:1027EE00EC0FFD1FE80FF11D20812033A1F3112303
:1027FE0031F0FE01E90FF11D8DE28183892F4AE050
:10280E00481B20E090E0E1E0F0E0EC0FFD1FE20F4E
:10281E00F11DDF01A80FB91F3C9130832F5F4217C6
:10282E0090F7BE016F5F7F4FFB01E20FF11D10822B
:10283E0080E80E94A42002C090E0CECF2C960FB666
:10284E00F894DEBF0FBECDBFDF91CF911F910895DB
:10285E002F923F924F925F926F927F928F929F92A2
:10286E00AF92BF92CF92DF92EF92FF920F931F9390
:10287E00CF93DF9300D00F92CDB7DEB7EEE0F3E04B
:10288E003080218097812581299F900111242F5F0F
:10289E003F4F8052829FA001839F500D11245A8377
:1028AE0049834A015FEF851A950A0380F481E02D72
:1028BE00A981BA81EA0FFB1FC490B22DB7706B2E9F
:1028CE00992309F479C0D22C10E088E090E05C01E5
:1028DE00AB1AB1086D2D832D0E9413239401210F85
:1028EE00311DD9011197CC2009F448C0E090110395
:1028FE00F09012036091150370E000911603409161
:10290E000F03469546954695E0E84E9FA00111248B
:10291E00EEE0F3E070802E0D3F1D5C2C570C495EEF
:10292E005C4FF901849190E0062C02C0880F991F2C
:10293E000A94E2F7482E112371F0F701EA0FFB1FFC
:10294E00E491F0E00A2C02C0F595E7950A94E2F7BF
:10295E004E2AA60FB71F013029F4FA01E70DF11D1B
:10296E008081482AFA01E70DF11D40827394260FEB
:10297E00371F5710D6CFAEE0B3E05C9280911603AE
:10298E00811111C0E0910F03E695E695E695AEE054
:10299E00B3E08C91B0E8EB9FF0011124E95EFC4F9F
:1029AE00E80FF11D1082E8E0DE0E1F5F8091150327
:1029BE00181708F48FCF02C0D22C10E0422D469586
:1029CE004695469550E020911403822D90E0820F9B
:1029DE00911D01979C0112F4295F3F4F3595279564
:1029EE0035952795359527954217530709F465C0F8
:1029FE00FFE3FD1508F461C06D2D832D0E94132396
:102A0E0089819A81810F911DCC2009F440C0AEE0DE
:102A1E00B3E011962C91119726952695269540E8B0
:102A2E00249F9001112418966C9118970C9117966B
:102A3E004C91179750E01396ED91FC911497E80F77
:102A4E00F91F102F1C0D88E090E07C01E618F108AC
:102A5E005901A00EB11CC501895E9C4FDC01DC90B2
:102A6E00849190E00E2C02C0959587950A94E2F71A
:102A7E008D29613009F48D29D501A95EBC4F8C9347
:102A8E000F5FE40FF51F0113E3CF10930E03809138
:102A9E001603811112C0AEE0B3E01196EC911197BE
:102AAE00E695E695E6958C91B0E8EB9FF001112442
:102ABE00E95EFC4FE80FF11D108281E0830D622D5F
:102ACE008C0D0E9413230F900F900F90DF91CF91DA
:102ADE001F910F91FF90EF90DF90CF90BF90AF902E
:102AEE009F908F907F906F905F904F903F902F9020
:022AFE00089539
:102B00004F925F926F927F928F929F92AF92BF92FD
:102B1000CF92DF92EF92FF920F931F936B017C0194
:102B2000DC01CB01B701A6014427552760787F77E8
:102B30004115510560487F4759F4A7019601C70127
:102B4000B6010E947A23A70196010E9436231AC07B
:102B5000181619061A061B06D4F0892B8A2B8B2B04
:102B600009F4CCC081E290E0909318078093170796
:102B7000A7019601C701B6010E9435239B01AC0154
:102B80000E947623562F472F382F292FBBC067E18D
:102B9000F594E794D794C7946A95D1F7C114D104FA
:102BA000E104F104E1F4C12CD12C7601A7FD0AC0A7
:102BB000880F991FAA1FBB1F2FEFC21AD20AE20A61
:102BC000F20AF4CF21E0C21AD108E108F108F0942A
:102BD000E094D094C094C11CD11CE11CF11C2FE7DF
:102BE000C21AD108E108F108AF77BB27A068C0FE80
:102BF00004C0880F991FAA1FBB1FF594E794D794B0
:102C0000C794880F991FAA1FBB1FE9E1F0E040E0BD
:102C100050E060E071E0812C912C540100E010E064
:102C2000980128013901440E551E661E771E841531
:102C30009505A605B70574F093018201040F151FD1
:102C4000261F371F84199509A609B709840E951EFA
:102C5000A61EB71E880F991FAA1FBB1F76956795E2
:102C6000579547953197E9F6892B8A2B8B2BA1F144
:102C700020E632E442EA5DE060E070E080E89FE355
:102C80000E94352320E030E040E85FE30E946D239E
:102C900087FD22C020E632E442EA5DE060E070E0B9
:102CA00080E89FE30E94362320E030E040E85FE3C5
:102CB0000E946D23181634F482E0880E911CA11C2A
:102CC000B11C0AC0D501C40181709927AA27BB276E
:102CD000880E991EAA1EBB1ED501C401B595A795E5
:102CE00097958795B15C37E1CC0CDD1CEE1CFF1C81
:102CF0003A95D1F7C80ED91EEA1EFB1E5C2D4D2D4C
:102D00003E2D2F2D652F742F832F922F1F910F9102
:102D1000FF90EF90DF90CF90BF90AF909F908F90FB
:0A2D20007F906F905F904F90089530
:102D2A004F925F926F927F928F929F92AF92BF92D1
:102D3A00CF92DF92EF92FF92CF93DF9300D000D031
:102D4A0000D0CDB7DEB79E838D8380E480937C006C
:102D5A00EAE7F0E08081806C8083808186FDFDCF88
:102D6A00609178008091790070E0782B80E090E0A3
:102D7A000E94F41F20E030EC4FE754E40E947623CF
:102D8A0020E030E040E051E40E947A234B015C01EC
:102D9A0081E480937C00EAE7F0E08081806C8083A4
:102DAA00808186FDFDCF609178008091790070E086
:102DBA00782B80E090E00E94F41F20E030EC4FE78F
:102DCA0054E40E94762320E030E040E051E40E947F
:102DDA007A232B013C0182E480937C00EAE7F0E04D
:102DEA008081806C8083808186FDFDCF6091780030
:102DFA008091790070E0782B80E090E00E94F41FC7
:102E0A0020E030EC4FE754E40E94762320E030E0E3
:102E1A0040E051E40E947A236B017C0183E48093B1
:102E2A007C00EAE7F0E08081806C8083808186FD07
:102E3A00FDCF609178008091790070E0782B80E076
:102E4A0090E00E94F41F20E030EC4FE754E40E9427
:102E5A00762320E030E040E051E40E947A2369833F
:102E6A007A838B839C83AD81BE818D929D92AD9234
:102E7A00BC921397FD014482558266827782189626
:102E8A00CD92DD92ED92FC921B97DC01CB018487F7
:102E9A009587A687B787A3019201C501B4010E944D
:102EAA003623A70196010E94362329813A814B8154
:102EBA005C810E94362320E030E040E85EE30E9415
:102ECA007A23AD81BE8150966D937D938D939C93A9
:102EDA005397CD0126960FB6F894DEBF0FBECDBF2D
:102EEA00DF91CF91FF90EF90DF90CF90BF90AF909E
:0E2EFA009F908F907F906F905F904F90089503
:102F0800CF92DF92EF92FF92CF93DF9300D000D061
:102F1800CDB7DEB76B017C01DC01CB01BF778B3D00
:102F28002FE0920729E4A2072FE3B20728F50097BC
:102F380020E8A20729E3B207E0F40097A048B1050A
:102F480048F420E030E040E853E0C701B6010E94B1
:102F58007A2308C020E030E040E85BE7C701B6010B
:102F68000E94362369837A838B839C83C701B601C9
:102F7800A1C0C701B60198C0B701A601442777FDD3
:102F88004395552766277727823D23E592072BE748
:102F9800A20720E4B20768F5843E9B4CA641B044E2
:102FA800A0F4452B49F02BED3FE049EC5FE3C70166
:102FB800B6010E9436237BC02BED3FE049EC5FE36E
:102FC800C701B6010E9435236BC0452B49F02BED94
:102FD8003FE049E450E4C701B6010E94362363C0CC
:102FE8002BED3FE049E450E4C701B6010E943523C8
:102FF8005AC0863D21E3920722EEA20720E4B207D9
:1030080068F5803E9D4EAF4AB044A0F4452B49F088
:1030180024EE3BEC46E950E4C701B6010E94362392
:103028003FC024EE3BEC46E950E4C701B6010E94DC
:1030380035233DC0452B49F02BED3FE049EC50E4EA
:10304800C701B6010E9436232FC02BED3FE049ECA3
:1030580050E4C701B6010E94352326C00097A04856
:10306800BF4738F0A7019601C701B6010E94352372
:1030780021C0AE014F5F5F4FC701B6010E944D19D5
:103088009C012370332769817A818B819C8121304F
:10309800310531F02230310531F0232B41F404C0E1
:1030A8000E945B1C07C090580E94E21B03C00E944C
:1030B8005B1C90580F900F900F900F90DF91CF915D
:0A30C800FF90EF90DF90CF90089585
:1030D2004F925F926F927F928F929F92AF92BF9226
:1030E200CF92DF92EF92FF920F931F93CF93DF93D2
:1030F200EC018B016A01880F991F880F991F880FB5
:10310200991F8C579F4F2115310521F40E94B11D43
:103112006C010DC0452B41F0F901408151814817E6
:10312200590710F4C12CD12CF90191838083C11469
:10313200D10409F49FC0F601D183C08313830283B3
:103142001C161D060CF049C07601F4E8EF0EF11CC6
:1031520000E010E02E010D2E000C66087708B80181
:10316200012E000C880B990B0E94F61F2BED3FE0FD
:1031720049EC50EC0E947A234B015C01C301B2017D
:103182000E94F61F9B01AC01C501B4010E94762387
:103192004B015C01F60182819381892B21F0B7FA00
:1031A200B094B7F8B094C501B4010E941B1AF7019C
:1031B2006083718382839383C501B4010E94841763
:1031C200F70164837583868397830F5F1F4FF8E04F
:1031D200EF0EF11CC017D10711F6760184E0E80E5C
:1031E200F11C4E010D2E000CAA08BB08C501B4014A
:1031F2000E94F61F0E9480150E94D01A4B015C01AA
:1032020004E010E021C00230110521F00430110564
:1032120039F003C003E010E005C00E5F1F4F02C08B
:1032220002E010E0B801012E000C880B990B0E94FD
:10323200F61F9B01AC01C501B4010E9468238823DB
:103242001CF48E0101C07C01CE01B8010E94422211
:10325200892BC9F6CE01B8010E944222C62FD72F70
:10326200F70111830083C701049662837383C2301E
:10327200D1054CF7C601DF91CF911F910F91FF90BD
:10328200EF90DF90CF90BF90AF909F908F907F9004
:083292006F905F904F900895CA
:10329A004F925F926F927F92AF92BF92CF92DF92DC
:1032AA00EF92FF920F931F93CF93DF93CDB7DEB7C1
:1032BA002C970FB6F894DEBF0FBECDBF2B013C0191
:1032CA005A01DC01CB01BF778B3D2FE0920729EC35
:1032DA00A2072DE4B20708F042C023E839EF42E220
:1032EA005FE3C301B2010E947A2320E030E040E4A8
:1032FA005BE40E94362320E030E040E45BE40E9475
:10330A0035236B017C010E943C2369877A878B876E
:10331A009C872AED3FE049EC5FE3C701B6010E94B2
:10332A007A239B01AC01C301B2010E9435232B0110
:10333A003C0123EA35E848E852E3C701B6010E9496
:10334A007A239B01AC01C301B2010E943523F50126
:10335A00608371838283938389859A8552C000979B
:10336A00F0E8AF07FFE7BF0770F0A3019201C301BE
:10337A00B2010E943523F5016083718382839383AE
:10338A0080E090E03EC0AC01BD0127E176956795EB
:10339A00579547952A95D1F74659510961097109F7
:1033AA006A017B0137E1CC0CDD1CEE1CFF1C3A954F
:1033BA00D1F78C199D09AE09BF098D839E83AF830E
:1033CA00B88700E010E021E030E0BE016F5F7F4F78
:1033DA00CE0105960E942A0249815A816B817C811D
:1033EA0077FE0AC07058F501408351836283738364
:1033FA0091958195910905C0F501408351836283B6
:10340A0073832C960FB6F894DEBF0FBECDBFDF9143
:10341A00CF911F910F91FF90EF90DF90CF90BF90C7
:0C342A00AF907F906F905F904F900895DE
:10343600A4E0B0E0E1E2FAE10C94FD218B019C01ED
:103446003F770B3D4FE0140749E424074FE3340769
:10345600B8F40115110540E8240749E3340708F0DC
:103466008DC020E030E040E85BE70E9436236983A8
:103476007A838B839C8360E070E080E89FE389C059
:103486006B017C01CC24F7FCC394DD24EE24FF24DD
:10349600023D43E514074BE7240740E4340730F5C3
:1034A600043E4BEC140746E1240740E4340768F079
:1034B6002BED3FE049E450E4C114D10419F00E9419
:1034C600362361C00E9435235EC0C114D10439F091
:1034D6002BED3FE049EC5FE30E94362358C09B0189
:1034E600AC016BED7FE089EC9FE325C0063D41E32F
:1034F600140742EE240740E4340700F5003E4DEE83
:1035060014074FEA240740E4340768F02BED3FE048
:1035160049EC50E4C114D10419F00E9436232EC0A0
:103526000E9435232BC0C114D10409F0905824EE13
:103536003BEC46E950E40E94352329C001151105EC
:1035460040E824074FE7340728F09B01AC010E94AE
:1035560035231FC0AE014F5F5F4F0E944D199C017E
:103566002370332769817A818B819C8121303105D3
:1035760041F02230310539F0232B49F40E945B1CBF
:1035860008C0905804C00E945B1C905802C00E945C
:0A359600E21B2496E8E00C941922D1
:1035A0004F925F926F927F928F929F92AF92BF9253
:1035B000CF92DF92EF92FF92CF93DF93CDB7DEB73A
:1035C00028970FB6F894DEBF0FBECDBF6B017C010C
:1035D000DC01CB0147E1B695A795979587954A956C
:1035E000D1F799278F579109873191059CF597FD60
:1035F00036C088248A94982C3FE7A32EB12C04C0AF
:10360000B594A794979487948A95D2F7D501C4016D
:103610008C219D21AE21BF21892B8A2B8B2BD1F0B0
:1036200020E030E040E85BE7C701B6010E943623A6
:103630006D837E838F839887F7FE04C0C80CD91CE6
:10364000EA1CFB1C80949094A094B094C820D920CC
:10365000EA20FB205C2D4D2D3E2D2F2D21C020E09A
:1036600030E040E85BE7C701B6010E94362369837A
:103670007A838B839C83F7FE0FC0D701C601880F26
:10368000991FAA1FBB1F892B8A2B8B2B19F350E084
:1036900040E030E82FEB04C050E040E030E020E0B4
:1036A000652F742F832F922F28960FB6F894DEBFC4
:1036B0000FBECDBFDF91CF91FF90EF90DF90CF9005
:1036C000BF90AF909F908F907F906F905F904F9042
:0236D00008955B
:1036D2008F929F92AF92BF92CF92DF92EF92FF9220
:1036E200CF936B017C01C42F20E030E0A9010E943E
:1036F200682381110AC080E30E942F148EE20E9487
:103702002F1480E30E942F1452C020E030E040E0EA
:103712005FECC701B6010E946D2388230CF447C0F9
:1037220020E030E040E05FE4C701B6010E94682378
:103732008823ECF520E030E0A901C701B6010E9420
:10374200682388233CF4F7FAF094F7F8F0948DE2BA
:103752000E942F14C701B6010E943C230E94D71277
:103762008EE20E942F146C2F70E080E090E00E94A5
:10377200F41F9B01AC0160E070E080E291E40E94E2
:10378200480C4B015C01C701B6010E9409210E944D
:10379200F41F9B01AC01C701B6010E943523A501AC
:1037A20094010E947A230E943C230E94D712CF9157
:1037B200FF90EF90DF90CF90BF90AF909F908F904F
:0237C200089568
:1037C4004F925F926F927F928F929F92AF92BF922D
:1037D400CF92DF92EF92FF92CF93DF9300D000D08D
:1037E400CDB7DEB74B015C019B01AC010E947A238B
:1037F4006B017C019B01AC01C501B4010E947A23D9
:1038040069837A838B839C832CE33CE646E356E30B
:10381400C701B6010E947A232FEC37E040E559E353
:103824000E9435232B013C01A7019601C701B60173
:103834000E947A2329813A814B815C810E947A23F8
:103844009B01AC01C301B2010E947A232B013C010C
:1038540024E838E848E05CE3C701B6010E947A2313
:103864002BEA3AEA4AE25EE30E94352329813A814F
:103874004B815C810E947A23A50194010E94362326
:103884009B01AC01C301B2010E9436230F900F903B
:103894000F900F90DF91CF91FF90EF90DF90CF903A
:1038A400BF90AF909F908F907F906F905F904F905C
:0238B400089575
:1038B6004F925F926F927F928F929F92AF92BF923A
:1038C600CF92DF92EF92FF92CF93DF9300D000D09A
:1038D600CDB7DEB79B01AC010E947A236B017C0158
:1038E6009B01AC010E947A232B013C0120E030E0D1
:1038F60040E05FEBC701B6010E947A2320E030E08A
:1039060040E85FE30E9436234B015C012FE93AEA67
:103916004AE25DE3C301B2010E947A239B01AC0136
:10392600C501B4010E9436234B015C0127E13AE947
:103936004CEC57E3C701B6010E947A232FE334E02B
:1039460046EB5AE30E94352369837A838B839C83F3
:10395600A3019201C701B6010E947A239B01AC0123
:1039660069817A818B819C810E947A239B01AC01BB
:10397600C501B4010E9436230F900F900F900F904F
:10398600DF91CF91FF90EF90DF90CF90BF90AF90F7
:0E3996009F908F907F906F905F904F9008955C
:1039A400EF92FF920F931F93CF93DF9360911907C8
:1039B40070911A076115710509F45BC0FB01A0E061
:1039C400B0E040E050E0C0E0D0E00081118122810D
:1039D40033810817190771F4109729F013963C9353
:1039E4002E93129704C030931A0720931907CF011E
:1039F400029641C08017910748F4209729F0E88087
:103A0400F9800E151F0510F4AD01EF01DF0121153A
:103A1400310511F0F901D9CF209759F10A811B81A1
:103A2400FE0121913191281B390B2530310588F095
:103A340099838883DF01A80FB91F22503109119699
:103A44003C932E9312960C93129713961C931397F0
:103A54008D01C617D70729F40093190710931A0785
:103A640006C0DA0112960C93129713961C93CF0199
:103A740002C080E090E0CDB7DEB7E6E00C941B22F4
:103A840010C00E944A2358F00E94432340F029F4B6
:103A94005F3F29F00C94582351110C9452230C9439
:103AA4007E230E94B02168F39923B1F3552391F347
:103AB400951B550BBB27AA2762177307840738F099
:103AC4009F5F5F4F220F331F441FAA1FA9F335D0F6
:103AD4000E2E3AF0E0E832D091505040E695001CAA
:103AE400CAF72BD0FE2F29D0660F771F881FBB1F64
:103AF400261737074807AB07B0E809F0BB0B802D42
:103B0400BF01FF2793585F4F3AF09E3F510578F06D
:103B14000C9458230C9452235F3FE4F3983ED4F35F
:103B2400869577956795B795F7959F5FC9F7880F41
:103B3400911D9695879597F90895E1E0660F771F93
:103B4400881FBB1F621773078407BA0720F0621B24
:0E3B5400730B840BBA0BEE1F88F7E0950895F3
:103B6200A2E0B0E0E7EBFDE10C94FD218C0181E3E2
:103B720090E20115110509F455C0892B79F0023044
:103B8200110510F402E010E0C8010E94D21C009757
:103B920009F04FC092E0E92EF12C04C081E3E82E37
:103BA20080E2F82E80911B0790911C0720911D073F
:103BB20030911E07821B930B6701C00ED11E801726
:103BC2009107F0F4DA82C982CE0101960E946D203B
:103BD200009719F480E090E02CC020911B073091EF
:103BE2001C078217930721F090931E0780931D07ED
:103BF20029813A81820F931F90931C0780931B07A0
:103C0200E0911D07F0911E07CF01E114F10419F0B4
:103C1200029611830083CE0EDF1ED0921E07C09241
:103C22001D0707C0009709F0ADCF7C0101E010E04D
:0A3C3200B9CF2296E8E00C941922A5
:103C3C000FC00E94432338F00E944A2320F09523A2
:103C4C0011F00C9458230C947E2311240C945223C1
:103C5C000E94B02170F3959FC1F3950F50E0551F52
:103C6C00629FF001729FBB27F00DB11D639FAA27C5
:103C7C00F00DB11DAA1F649F6627B00DA11D661F14
:103C8C00829F2227B00DA11D621F739FB00DA11D35
:103C9C00621F839FA00D611D221F749F3327A00DEF
:103CAC00611D231F849F600D211D822F762F6A2F8B
:103CBC0011249F5750409AF0F1F088234AF0EE0FF0
:103CCC00FF1FBB1F661F771F881F91505040A9F71D
:103CDC009E3F510580F00C9458230C9452235F3F67
:103CEC00E4F3983ED4F3869577956795B795F79559
:103CFC00E7959F5FC1F7FE2B880F911D96958795D1
:043D0C0097F9089586
:103D100011C00E94432338F00E944A2320F039F456
:103D20009F3F19F426F40C947E230EF4E095E7FBF4
:103D30000C945823E92F0E94B02158F3BA17620758
:103D400073078407950720F079F4A6F50C945123A6
:103D50000EF4E0950B2EBA2FA02D0B01B9019001A6
:103D60000C01CA01A0011124FF27591B99F0593FEA
:103D700050F4503E68F11A16F040A22F232F342F32
:103D80004427585FF3CF469537952795A795F04080
:103D90005395C9F77EF41F16BA0B620B730B840B95
:103DA000BAF09150A1F0FF0FBB1F661F771F881F4D
:103DB000C2F70EC0BA0F621F731F841F48F48795A5
:103DC00077956795B795F7959E3F08F0B0CF939597
:0E3DD000880F08F09927EE0F979587950895B4
:103DDE000E94D8228EEA0E947B2285ED0E947B22D1
:103DEE0080EF0E947B2288EA0E947B228FE30E9452
:103DFE007B2283ED0E947B2280E00E947B228DE855
:103E0E000E947B2284E10E947B2280E40E947B221E
:103E1E0080E20E947B2280E00E947B2281EA0E9447
:103E2E007B2288EC0E947B228AED0E947B2282E11B
:103E3E000E947B2281E80E947B228FEF0E947B22D0
:103E4E0089ED0E947B2281EF0E947B228BED0E94E6
:103E5E007B2280E20E947B2284EA0E947B2286EAF9
:103E6E000E947B228EE20E947B228FEA0E947B229E
:103E7E0060E080E00E941323EEE0F3E086EA8283A6
:0C3E8E001782168215821182108208959E
:103E9A000F931F93CF93DF93EA0140385105D4F073
:103EAA0020E030E040E05FE70E947A239E012F572E
:103EBA003109203831056CF120E030E040E05FE75D
:103ECA000E947A23CE5FD109C038D1051CF1CFE711
:103EDA00D0E020C042385F4FECF420E030E040E808
:103EEA005CE00E947A239E012A593F4F22384FEF05
:103EFA0034077CF420E030E040E85CE00E947A235A
:103F0A00C453DF4FC2382FEFD20724F4C2E8DFEFE1
:103F1A0001C0E9019E0121583F4F8901330F220B4D
:103F2A00330BA9019801E7E1220F331F441F551FE4
:103F3A00EA95D1F70E947A23DF91CF911F910F91D1
:023F4A000895D8
:103F4C00EF92FF920F931F93CF93DF93CDB7DEB712
:103F5C00A8970FB6F894DEBF0FBECDBFCE01019669
:103F6C000E94951689899A89AB89BC89809306032E
:103F7C0090930703A0930803B093090300E011E0AA
:103F8C000F2EF0E0EF2EF3E0FF2EF02DCE01459634
:103F9C000E9495168DA19EA1AFA1B8A58093060392
:103FAC0090930703A0930803B0930903F80181933E
:103FBC009193A193B1938F01EE15FF0539F70E94F0
:103FCC00D720A8960FB6F894DEBF0FBECDBFDF91F9
:0C3FDC00CF911F910F91FF90EF9008957E
:103FE800E89409C097FB3EF490958095709561958B
:103FF8007F4F8F4F9F4F9923A9F0F92F96E9BB2741
:104008009395F695879577956795B795F111F8CFBC
:10401800FAF4BB0F11F460FF1BC06F5F7F4F8F4F27
:104028009F4F16C0882311F096E911C0772321F01D
:104038009EE8872F762F05C0662371F096E8862FB5
:1040480070E060E02AF09A95660F771F881FDAF70C
:0A405800880F9695879597F9089553
:104062000097C9F1FC013297A0911907B0911A0784
:10407200109759F1408151819C01240F351FA217DD
:10408200B30779F412968D919C911397938382834F
:104092002D913C91CA01820F931F029691838083D6
:1040A20016C08D919C9111979C012E5F3F4F2A0F54
:1040B2003B1FE217F30731F4840F951F02968D938D
:1040C2009C930895B383A28302C013821282F09359
:0840D2001A07E0931907089595
:1040DA00FC014081518180911F0790912007892B13
:1040EA0041F48091230790912407909320078093AD
:1040FA001F078091210790912207009719F48DB725
:10410A009EB7809720911F073091200728173907FB
:10411A0048F08CE090E0909318078093170780E0AE
:10412A0090E00895821B930B8417950790F3420F32
:0E413A00531F5093200740931F07C90108959B
:10414800CF92DF92EF92CF93DF936B01E82EFB01C2
:104158008491E7FC8081882301F1EEE0F3E090810F
:10416800258130E0290F311D20383105B4F4EF01E5
:1041780008C098812D8130E0290F311D2038310584
:1041880064F49FEFC91AD90AE90A0E942F14F601AC
:104198008491E7FC80818111ECCFDF91CF91EF9082
:0641A800DF90CF900895A6
:1041AE000F930E94EF1E00E028E045E068EC70E0FF
:1041BE0080E00E94D2210E949D220E9472236EE115
:1041CE0085E00E941323609106037091070380918E
:1041DE0008039091090343E00E94691B60E574E0B7
:1041EE0080E00E94A42060910401709105018091ED
:1041FE0006019091070144E00E94691B0E94622112
:04420E000F9108956F
:104212000E94B82188F09F5798F0B92F9927B7517B
:10422200B0F0E1F0660F771F881F991F1AF0BA9558
:10423200C9F714C0B13091F00E945123B1E0089542
:104242000C945123672F782F8827B85F39F0B93F34
:10425200CCF3869577956795B395D9F73EF490950B
:0E4262008095709561957F4F8F4F9F4F089507
:10427000EF92FF920F931F93CF93DF93C82F7B0191
:10428000142F0E94E52288E70E94CA228C2F0E94E8
:10429000CA22112371F0E7011150012F10E00F5FC6
:1042A0001F4F0E0D1F1D89910E94CA22C017D107F2
:1042B000D1F70E941C23DF91CF911F910F91FF90A6
:0442C000EF900895DE
:1042C400CF93DF9381E20E947B2280E00E947B22D5
:1042D4008FE70E947B2282E20E947B2280E00E9480
:1042E4007B2287E00E947B22C0E0D0E0BE01629581
:1042F4007295707F7627607F7627695E7C4F40E1F8
:1043040080E40E9438212196C034D10579F7DF91E9
:04431400CF910895A8
:10431800990F0008550FAA0BE0E8FEEF16161706CE
:10432800E807F907C0F012161306E407F50798F036
:10433800621B730B840B950B39F40A2661F0232B4F
:10434800242B252B21F408950A2609F4A140A695CB
:084358008FEF811D811D089506
:1043600057FD9058440F551F59F05F3F71F0479526
:10437000880F97FB991F61F09F3F79F0879508950B
:10438000121613061406551FF2CF4695F1DF08C02A
:10439000161617061806991FF1CF86957105610547
:0443A00008940895E0
:1043A4000F934423E4F02034D0F40230C0F4EEE060
:1043B400F3E0748363834583268330E0215031091D
:1043C400C90199230CF4079695958795959587953A
:1043D400959587958F5F80931503009316030F912E
:0243E40008953A
:1043E6002F923F924F925F926F927F928F929F92FF
:1043F600AF92BF92CF92DF92EF92FF920F931F93ED
:10440600CF93DF93CDB7DEB7CA1BDB0B0FB6F8949D
:08441600DEBF0FBECDBF09940B
:10441E002A88398848885F846E847D848C849B8446
:10442E00AA84B984C884DF80EE80FD800C811B8154
:10443E00AA81B981CE0FD11D0FB6F894DEBF0FBE83
:06444E00CDBFED01089551
:1044540090E007C08193E217F307E1F7985F903487
:1044640071F0292F26952695269540E8249F9001E2
:104474001124F901E95EFC4F29563C4FEBCF089516
:1044840097FB072E16F4009407D077FD09D00E94FD
:10449400562207FC05D03EF4909581959F4F0895D0
:0844A400709561957F4F0895AA
:1044AC00AA1BBB1B51E107C0AA1FBB1FA617B7074E
:1044BC0010F0A61BB70B881F991F5A95A9F780956A
:0844CC009095BC01CD0108959B
:1044D40084B114B820E030E040E050E060E070E0E7
:1044E40080E890E00E946918909305038093040388
:0244F400089529
:1044F600CF93DF930F92CDB7DEB7898341E0BE013C
:104506006F5F7F4F80E00E9438210F90DF91CF913F
:02451600089506
:10451800092E0394000C11F4882352F0BB0F40F4C9
:10452800BF2B11F460FF04C06F5F7F4F8F4F9F4F09
:024538000895E4
:10453A0080911003873A21F486EA8093100303C01E
:10454A0087EA80931003809110030E947B220895CA
:10455A00A29FB001B39FC001A39F700D811D1124BA
:0E456A00911DB29F700D811D1124911D0895A9
:104578000E946A220E94A61F2FEF83ED90E321502C
:0C45880080409040E1F700C00000F4CF3C
:104594008093BB0084E88093BC00ECEBF0E0808166
:0C45A4008823ECF78091B900887F08950F
:1045B0003C9A3D9A449A459A1092B90088E48093B7
:0A45C000B80084E08093BC00089569
:1045CA0084EA8093BC00ECEBF0E080818823ECF76E
:0845DA008091B900887F08956B
:1045E20057FD05C0659175918591959108956191E9
:0845F2007191819191910895EE
:1045FA000E94AD22A59F900DB49F900DA49F800D9F
:06460A00911D112408952A
:10461000EC010E9488230E948723CE010E948923F7
:06462000CE010E9485237B
:10462600CF93C62F0E945E238C2F0E946323CF91C7
:024636000895E5
:1046380085ED8093BC00ECEBF0E0808184FDFDCF3C
:024648000895D3
:10464A00B7FF0C94FD220E94FD22821B930B089552
:10465A0057FD03C06591759108956191719108950F
:0E466A005058BB27AA270E94881E0C948C2251
:0E4678000E9409216894B1110C9452230895F8
:0E46860000240A941616170618060906089551
:0E46940000240A941216130614060506089553
:0E46A200E894BB2766277727CB0197F9089588
:0C46B00097F99F6780E870E060E00895D3
:0A46BC00882314F080930E03089584
:0A46C600803410F480930F03089570
:0A46D0000E948C2108F481E0089597
:0A46DA000E948C2108F48FEF089570
:0846E40080E00E942A220895E3
:0846EC000E94421D0C948C2277
:0846F4000E941E1E0C948C2292
:0646FC009FEF80EC089521
:044702000C94000013
:044706009F770895FC
:04470A000E946200A7
:02470E0008950C
:0247100008950A
:02471200089508
:024714000000A3
:02471600250775
:00000001FF
